:100000001AC029C028C027C026C025C024C023C0CC
:1000100022C021C020C01FC01EC01DC01CC01BC0EC
:100020001AC019C0C3C017C016C015C014C013C071
:1000300012C011C010C011241FBECFEFD2E0DEBF2E
:10004000CDBF21E0A0E0B1E001C01D92AF30B2070A
:10005000E1F719D021C2D4CFE1ECF0E080818861D2
:100060008083A2ECB0E08C9186608C938081806864
:1000700080831092C50083E38093C4000895ECDF71
:100080005A98529A0895CDD1FADF789418ECC0E0CE
:10009000D1E08091070181111DC08091060161E0CE
:1000A000680F60930601653638F481E0A8D060914E
:1000B000060182E0A4D00EC08456843658F4212F65
:1000C000261B622F81E09BD080910601612F681B67
:1000D00082E095D0909105019923C1F180910401AE
:1000E0008F5F80930401843648F0109204011092CF
:1000F0000501109203011092020128C0923031F5DF
:100100001092050180910301888360910201698347
:100110008B70E1F4888182958F70813049F028F0EE
:10012000823059F0833071F011C0109207010EC077
:10013000653660F481E063D009C0653638F482E04A
:100140005ED004C0653610F483E059D08091080178
:1001500090910901A0910A01B0910B010196A11D96
:10016000B11D8093080190930901A0930A01B093F7
:100170000B018FEC97E00197F1F700C00000809130
:10018000080190910901A0910A01B0910B01883EEC
:100190009340A105B10508F47CCF1092080110929C
:1001A000090110920A0110920B0173CF1F920F9256
:1001B0000FB60F9211248F9381E0809307018091F5
:1001C0000501811108C08091C6008093030181E080
:1001D000809305010EC0813041F48091C600809368
:1001E000020182E08093050104C010920301109285
:1001F00002018F910F900FBE0F901F901895CF9214
:10020000DF92EF92FF920F931F93CF93C62F653625
:100210000CF0E2C0823009F453C0833009F497C077
:10022000813009F0D9C0A0910E01A6171CF50F2E40
:10023000F4E6CF2ED12CE12CF12CF02D04EB10E0C4
:10024000AF5FA0930E010A2E000CBB0B2FEF30E026
:1002500011D1A7019601ECD02095F80120838FE001
:1002600097E20197F1F700C00000A0910E01AC17D2
:100270003CF3B2C06A170CF0AFC00F2EF4E6CF2EDD
:10028000D12CE12CF12CF02D04EB10E0A150A09327
:100290000E010A2E000CBB0B2FEF30E0EBD0A701B4
:1002A0009601C6D02095F80120838FE097E2019750
:1002B000F1F700C00000A0910E01CA173CF38CC0FA
:1002C000A0910D01A61704F50F2EF4E6CF2ED12C28
:1002D000E12CF12CF02DAF5FA0930D010A2E000C44
:1002E000BB0B2FEF30E0C6D0A7019601A1D020951F
:1002F00028BDEFE0F7E23197F1F700C00000A091D0
:100300000D01AC1744F368C06A170CF065C00F2EDE
:10031000F4E6CF2ED12CE12CF12CF02DA150A0939E
:100320000D010A2E000CBB0B2FEF30E0A3D0A7016C
:1003300096017ED0209528BD8FE097E20197F1F7D6
:1003400000C00000A0910D01CA1744F345C0A09160
:100350000C01A61704F50F2EF4E6CF2ED12CE12CBC
:10036000F12CF02DAF5FA0930C010A2E000CBB0BFB
:100370002FEF30E07FD0A70196015AD0209527BDFE
:10038000EFE0F7E23197F1F700C00000A0910C0117
:10039000AC1744F321C06A17FCF40F2EF4E6CF2EFD
:1003A000D12CE12CF12CF02DA150A0930C010A2EA0
:1003B000000CBB0B2FEF30E05DD0A701960138D0C9
:1003C000209527BD8FE097E20197F1F700C000006C
:1003D000A0910C01CA1744F3CF911F910F91FF9088
:1003E000EF90DF90CF9008958FEF8093B400E0EB13
:1003F000F0E0808180628083808181608083E1EB96
:10040000F0E080818160808308958FEF88BD84B59E
:10041000806284BD84B5816084BD85B5816085BD01
:1004200008955B9A5D9A539A559ADEDFEECF089550
:10043000A1E21A2EAA1BBB1BFD010DC0AA1FBB1FE8
:10044000EE1FFF1FA217B307E407F50720F0A21B5A
:10045000B30BE40BF50B661F771F881F991F1A94C7
:1004600069F760957095809590959B01AC01BD01F1
:10047000CF01089505D0B7FF0895821B930B08950F
:10048000A29FB001B39FC001A39F01D0B29F700D86
:0C049000811D1124911D0895F894FFCFE8
:00000001FF
