:100000001AC034C033C032C031C030C02FC02EC07F
:100010002DC02CC02BC02AC029C028C027C026C094
:1000200025C024C02CC122C021C020C01FC01EC0BA
:100030001DC01CC01BC011241FBECFEFD2E0DEBF0D
:10004000CDBF11E0A0E0B1E0EAECF8E002C005901D
:100050000D92A432B107D9F722E0A4E2B1E001C0C9
:100060001D92A931B207E1F753D02DC4C9CF85360F
:1000700088F4282F3FEF2303C001112464E670E0C9
:100080001DD28FEF90E0861B970B88BD87BD80E067
:1000900090E008958FEF9FEF08958093B400E0EB18
:1000A000F0E0808180628083808181608083E1EBE9
:1000B000F0E0808181608083089588BD84B580628E
:1000C00084BD84B5816084BD85B5816085BD08959A
:1000D00087BD84B5806884BD84B5816084BD85B5E5
:1000E000816085BD0895E1ECF0E0808188618083C6
:1000F000A2ECB0E08C9186608C93808180688083D4
:100100001092C50083E38093C4005A98529A0895D0
:100110005B9A5D9A5E9A539A559A569A8FEF90E041
:10012000BCDF8FEF90E0C9DF8FEF90E0D1DF80E0A0
:100130009EDFD9DF7894809106018823B9F0C0E072
:100140008C2F95DF8FE19EE40197F1F700C000004E
:10015000CF5FC536A9F7C4E68C2F89DF8FE19EE417
:100160000197F1F700C00000C150B0F78FEC97E0A5
:100170000197F1F700C00000DECF8F929F92AF92FF
:10018000BF92CF92DF92EF92FF920F931F93CF9384
:10019000DF9300D0CDB7DEB78C0169831A82FC01F2
:1001A0008081882371F040E050E020E030E0681367
:1001B00003C02F5F3F4FAF01319680818111F7CF90
:1001C00004C040E050E020E030E0F8010190002061
:1001D000E9F7CF01029761E070E04817590710F086
:1001E00060E070E05B01A20EB31E6501FFEFCF1A65
:1001F000DF0AC601880F991F88D14C01892B79F13C
:10020000BE016F5F7F4FC801DAD20097D9F0C114E9
:10021000D10429F403C00C151D0520F097D27401F8
:1002200000E010E00F5F1F4FB2D2F701819391936E
:100230007F01BE016F5F7F4F80E090E0C0D20097EA
:1002400051F702C000E010E0A016B10609F07ED21E
:10025000AA0CBB1CF401EA0DFB1D11821082C40123
:100260000F900F90DF91CF911F910F91FF90EF9022
:10027000DF90CF90BF90AF909F908F9008951F9286
:100280000F920FB60F9211242F933F934F935F93CA
:100290006F937F938F939F93AF93BF93CF93DF938E
:1002A000EF93FF9380912C01282F082E000C330B25
:1002B0009091C600F901E955FE4F90839D3009F0F9
:1002C000E7C0F901E955FE4F108210922C016CE253
:1002D00087EA91E052DFEC019093A6018093A5019B
:1002E000892B09F4D8C08881998134D280932B015D
:1002F00088819981A2D1C091A501D091A6016A817E
:100300007B814AE050E08BE991E06CD24AE050E01A
:100310006BE971E081E991E065D24AE050E061E982
:1003200071E08BE092E05ED28A819B8186D1E09180
:10033000A501F091A601C481D581CE010BD2809395
:100340002A01CE017AD18091A5019091A60175D1A3
:1003500080912B01823008F09EC067E071E08BE94C
:1003600091E030D2892B09F05EC010920601809195
:100370002A014AE06DE271E0082E000C990B68D268
:1003800080912A01082E000C990B909329018093EB
:100390002801209126013091270128173907E4F41C
:1003A000C22F022E000C330B821793079CF18C2F67
:1003B0005EDE8FE19EE40197F1F700C00000CF5FA1
:1003C0002C2F0C2E000C330B8091280190912901C9
:1003D0008217930764F71EC082179307DCF4C22FBD
:1003E000022E000C330B28173907A4F08C2F3FDEA8
:1003F0008FE19EE40197F1F700C00000C1502C2F5F
:100400000C2E000C330B80912801909129012817A4
:10041000390764F780912801909129019093270171
:100420008093260138C060E171E081E991E0CAD192
:10043000009719F5109206011092290110922801D7
:10044000C0912601CC23A4F08C2F11DE8FE19EE415
:100450000197F1F700C00000C150809128019091F0
:1004600029012C2F0C2E000C330B2817390764F7A9
:1004700090932701809326010EC06AE171E08BE022
:1004800092E0A0D1892B39F481E08093060103C06A
:100490008F5F80932C01FF91EF91DF91CF91BF91FE
:1004A000AF919F918F917F916F915F914F913F910C
:1004B0002F910F900FBE0F901F90189597FB072E4E
:1004C00016F4009406D077FD08D00BD007FC05D0B9
:1004D0003EF4909581959F4F0895709561957F4F5B
:1004E0000895AA1BBB1B51E107C0AA1FBB1FA6177B
:1004F000B70710F0A61BB70B881F991F5A95A9F7CD
:1005000080959095BC01CD0108950F931F93CF93D3
:10051000DF938230910510F482E090E0E0911702C1
:10052000F091180220E030E0A0E0B0E0309719F13F
:10053000408151810281138148175907C8F08417FF
:10054000950769F4109731F012960C931297139651
:100550001C9327C0009317021093180222C0211584
:10056000310519F04217530718F49A01BD01EF0144
:10057000DF01F801DBCF21153105F9F0281B390B1C
:100580002430310580F48A819B816115710521F049
:10059000FB019383828304C0909318028093170217
:1005A000FE01329644C0FE01E20FF31F8193919346
:1005B00022503109398328833AC0209115023091A5
:1005C0001602232B41F42091020130910301309354
:1005D000160220931502209100013091010121158E
:1005E000310541F42DB73EB740910401509105010A
:1005F000241B350BE0911502F0911602E217F30768
:10060000A0F42E1B3F0B2817390778F0AC014E5F82
:100610005F4F2417350748F04E0F5F1F50931602A7
:10062000409315028193919302C0E0E0F0E0CF0186
:10063000DF91CF911F910F910895CF93DF93009792
:1006400009F481C0FC01329713821282A091170233
:10065000B0911802109781F420813181820F931F8D
:1006600020911502309116022817390751F5F093A1
:100670001602E093150267C0ED0120E030E0CE17CE
:10068000DF0740F44A815B819E0141155105F1F07D
:10069000EA01F5CFD383C28340815181840F951F36
:1006A000C817D90759F488819981840F951F02963C
:1006B000918380838A819B81938382832115310575
:1006C00029F4F0931802E09317023DC0E901FB837F
:1006D000EA8349915991C40FD51FEC17FD0761F4C6
:1006E00080819181840F951F0296E9019983888307
:1006F000828193819B838A83E0E0F0E012968D9162
:100700009C911397009719F0FD01DC01F7CF8D91B3
:100710009C9111979D012E5F3F4F820F931F209157
:100720001502309116022817390769F4309729F419
:10073000109218021092170202C013821282B09314
:100740001602A0931502DF91CF91089581E090E009
:10075000F894B9C0FC0188279927E89421912032A8
:10076000E9F3293010F02E30C8F32B3239F02D3256
:1007700031F4689403C076D0820F911D21912053EB
:100780002A30C8F31EF4909581959F4F08950F93DA
:100790001F93CF93DF938C01FC0101900020E9F7B8
:1007A000CF01801B910BB1DEEC01009711F0B80175
:1007B00012D0CE01DF91CF911F910F91089544E2A5
:1007C00051E01FC0FB01DC018D91019080190110E7
:1007D000D9F3990B0895FB01DC0101900D920020E3
:1007E000E1F70895FB01DC014150504048F00190D1
:1007F0000D920020C9F701C01D9241505040E0F712
:100800000895FA01A191B081009719F41097E1F0D1
:10081000CD01DC01CD010D90002011F4C00113C009
:10082000FB012191222319F02015D9F7F3CFFB0109
:100830002191201519F41E92119606C02223C1F7AA
:100840000D900020A1F7D001FA01A193B083089583
:10085000BB274A3031F4992322F4BDE2909581956B
:100860009F4F09C07AE0979F902D879F802D910D13
:1008700011240895BB27FB015527AA27880F991F2C
:10088000AA1FA41710F0A41B83955051B9F7A05DBF
:10089000AA3308F0A95DA193009779F7B111B1933C
:1008A0001192CB0100C0DC01FC01672F719177230D
:1008B000E1F7329704C07C916D9370836291AE171B
:0A08C000BF07C8F30895F894FFCFB6
:1008CA00000019022000016C696768745F6F6E008E
:1008DA006C696768745F6F6666006C696768745FE5
:0408EA00666C7300C5
:00000001FF
